:100000000C94CC000C94E9000C94E9000C94E900E9
:100010000C94E9000C94E9000C94E9000C94E900BC
:100020000C94E9000C94E9000C94E9000C94E900AC
:100030000C94E9000C946F060C94E9000C94E90010
:100040000C94E9000C94E9000C94E9000C94E9008C
:100050000C94E9000C94E9000C94E9000C94E9007C
:100060000C94E9000C94E900084AD73B3BCE016EA2
:1000700084BCBFFDC12F3D6C74319ABD56833DDAFF
:100080003D00C77F11BED9E4BB4C3E916BAAAABE0E
:10009000000000803F006E616E00696E66000040E7
:1000A0007A10F35A00A0724E18090010A5D4E80087
:1000B00000E87648170000E40B54020000CA9A3B9F
:1000C000000000E1F5050000809698000000404225
:1000D0000F000000A08601000000102700000000B3
:1000E000E803000000006400000000000A000000B7
:1000F00000000100000000002C76D888DC674F0863
:1001000023DFC1DFAE59E1B1B796E5E3E453C63A68
:10011000E651997696E8E6C28426EB898C9B62EDDF
:10012000407C6FFCEFBC9C9F40F2BAA56FA5F49099
:10013000055A2AF75C936B6CF9676DC11BFCE0E410
:100140000D47FEF520E6B500D0ED902E0300943566
:1001500077050080841E080000204E0A000000C8B9
:100160000C333333330F986E12831141EF8D21140A
:10017000893BE65516CFFEE6DB18D1844B381BF7DA
:100180007C1D901DA4BBE424203284725E22810079
:10019000C9F124ECA1E53D2711241FBECFEFD8E023
:1001A000DEBFCDBF11E0A0E0B1E0E2EBF1E202C0C2
:1001B00005900D92AA33B107D9F721E0AAE3B1E087
:1001C00001C01D92AE33B207E1F70E94080A0C94F9
:1001D000D7100C940000CF93DF931F92CDB7DEB7FA
:1001E00080ED0E94CC038983AE014F5F5F4F65E7CE
:1001F00080ED0E9444048981883609F080E00F90E8
:10020000DF91CF91089540E06BE680ED0E945E049F
:1002100041E06AE180ED0E945E0440E16BE180ED27
:100220000E945E0440E06CE180ED0E945E0440E0CC
:1002300068E380ED0E945E0440E068E680ED0C9487
:100240005E04CF93DF93EC01AC0163E480ED0E9488
:100250004404AE014F5F5F4F64E480EDDF91CF91C6
:100260000C944404CF93DF93EC01AC0165E480ED82
:100270000E944404AE014F5F5F4F66E480EDDF9162
:10028000CF910C944404CF93DF93EC01AC0167E46D
:1002900080ED0E944404AE014F5F5F4F68E480ED43
:1002A000DF91CF910C9444040F931F93CF93DF936E
:1002B00000D0CDB7DEB78C01CE0101960E9421019E
:1002C00089819A81982789279827F80191838083CB
:1002D000CE0101960E94320189819A81982789274F
:1002E0009827F80193838283CE0101960E944301EF
:1002F00089819A81982789279827F8019583848393
:100300000F900F90DF91CF911F910F910895CF9390
:10031000DF93EC01AC016BE380ED0E944404AE017D
:100320004F5F5F4F6CE380EDDF91CF910C944404FD
:10033000CF93DF93EC01AC016DE380ED0E944404A8
:10034000AE014F5F5F4F6EE380EDDF91CF910C9474
:100350004404CF93DF93EC01AC016FE380ED0E9486
:100360004404AE014F5F5F4F60E480EDDF91CF91B9
:100370000C9444040F931F93CF93DF9300D0CDB719
:10038000DEB78C01CE0101960E94870189819A8196
:10039000982789279827F80191838083CE010196B9
:1003A0000E94980189819A81982789279827F801C6
:1003B00093838283CE0101960E94A90189819A814B
:1003C000982789279827F801958384830F900F90A9
:1003D000DF91CF911F910F910895CF92DF92EF920D
:1003E000FF920F931F93FC014083518362837383B9
:1003F0000483158326833783C086D186E286F386FD
:100400001486158616861786108A118A128A138A10
:1004100080E090E0A0E8BFE3808F918FA28FB38F40
:10042000148E158E168E178E10A211A212A213A270
:1004300084A395A3A6A3B7A31F910F91FF90EF905C
:10044000DF90CF9008954F925F926F927F928F923C
:100450009F92AF92BF92CF92DF92EF92FF920F9353
:100460001F93CF93DF93CDB7DEB76E970FB6F89497
:10047000DEBF0FBECDBF9E8F8D8F4D8B5E8B6F8B82
:10048000788FC901B801AD8DBE8D50962D913D91EB
:100490004D915C9153972D873E874F87588B0E94D3
:1004A000FA0BED8DFE8D648B758B868B978BA70178
:1004B00096010E946C0EAD8DBE8D1C962D913D91C6
:1004C0004D915C911F970E94FB0B698B7A8B8B8BF4
:1004D0009C8BAD8DBE8D94962D913D914D915C91EF
:1004E000979729833A834B835C83A701960169819F
:1004F0007A818B819C810E946C0E2B013C01AD8D19
:10050000BE8D5C962D913D914D915C915F972D83B1
:100510003E834F83588790962D913D914D915C91EC
:10052000939729873A874B875C872D813E814F813E
:1005300058850E94FA0B29853A854B855C850E9477
:10054000FA0BED8DFE8D20813181428153810E9415
:10055000FB0BA70196010E946C0EAD8DBE8D5896C7
:100560002D913D914D915C915B970E94FB0B4B014E
:100570005C01A30192016D817E818F8198850E942B
:10058000FA0B6D837E838F839887A301920169851F
:100590007A858B859C850E94FA0B69877A878B8781
:1005A0009C87ED8DFE8D2481358146815781C70161
:1005B000B6010E946C0E29813A814B815C810E94B8
:1005C000FB0B698F7A8F8B8F9C8FAD8DBE8D1896AC
:1005D0002D913D914D915C911B97C501B4010E94F5
:1005E000FB0B6B017C01ED8DFE8DC0AAD1AAE2AAA6
:1005F000F3AAAC019B01C501B4010E94DE0C2B01E2
:100600003C01AD8DBE8D98964D925D926D927C921F
:100610009B97A701960169857A858B859C850E94A9
:10062000DE0C6B017C01ED8DFE8DC4A6D5A6E6A681
:10063000F7A629893A894B895C896D897E898F89DA
:10064000988D0E94FA0B69837A838B839C83AD8D8E
:10065000BE8DD4966D937D938D939C93D7979B017C
:10066000AC01C301B2010E946C0E29893A894B8901
:100670005C890E94FB0BED8DFE8D648775878687F4
:10068000978729813A814B815C81C701B6010E941D
:100690006C0E2D853E854F8558890E94FB0BAD8DD4
:1006A000BE8D50966D937D938D939C935397A3012C
:1006B0009201C501B4010E946C0E9B01AC01C50101
:1006C000B4010E94FA0B4B015C01ED8DFE8D808E12
:1006D000918EA28EB38EA30192016D817E818F8156
:1006E00098850E946C0E9B01AC016D817E818F818B
:1006F00098850E94FA0B2B013C01AD8DBE8D5C9656
:100700004D925D926D927C925F97A5019401C70115
:10071000B6010E946C0E9B01AC0169857A858B85C0
:100720009C850E94FA0BED8DFE8D60A371A382A3C0
:1007300093A3A3019201C701B6010E946C0E9B0115
:10074000AC01698D7A8D8B8D9C8D0E94FA0BAD8DDD
:10075000BE8D94966D937D938D939C9397976E9693
:100760000FB6F894DEBF0FBECDBFDF91CF911F91C2
:100770000F91FF90EF90DF90CF90BF90AF909F9040
:100780008F907F906F905F904F9008951092B90076
:1007900088E48093B800089594EA9093BC00909107
:1007A000BC0097FFFCCF9091B900987F983021F062
:1007B000903111F081E008958093BB0084E880932C
:1007C000BC008091BC0087FFFCCF8091B900887F7E
:1007D000883111F0803471F780E0089524EA34E81C
:1007E00044E92093BC009091BC0097FFFCCF90910E
:1007F000B900987F983011F0903199F78093BB0041
:100800003093BC009091BC0097FFFCCF9091B90051
:10081000987F903211F0983539F44093BC00909154
:10082000BC0094FDFCCFDDCF08950C94CC0384E98B
:100830008093BC008091BC0084FDFCCF0895809320
:10084000BB0084E88093BC008091BC0087FFFCCF94
:100850009091B900987F81E0983209F480E0089582
:1008600084EC8093BC008091BC0087FFFCCF80911A
:10087000BB00089584E88093BC008091BC0087FF92
:10088000FCCF8091BB0008950F931F93CF93DF930C
:10089000C82FD62F8A010E94EE038D2F0E941F04BD
:1008A00081E08C0F0E9415040E943A04F8018083B5
:1008B000DF91CF911F910F910C941704CF93DF9389
:1008C000D62FC42F0E94EE038D2F0E941F048C2F61
:1008D0000E941F04DF91CF910C941704CF92DF92F6
:1008E000EF92FF921F93CF93DF93D82F162FC42F31
:1008F00069010E94EE03812F0E941F0481E08D0F89
:100900000E94150410E0C150DD0B812F90E07601AC
:10091000E80EF91E8C179D076CF00E943A04F7014F
:100920008083DF91CF911F91FF90EF90DF90CF9068
:100930000C9417040E943004F70180831F5FE5CFF9
:10094000FF920F931F93CF93DF93C62F042FF22EA6
:10095000132F0E94EE038C2F0E941F04CF2DD12F46
:100960000C0F1D2F111DC017D10739F4DF91CF9146
:100970001F910F91FF900C94170489910E941F04FE
:10098000F2CFEF92FF920F931F93CF93DF93E90182
:1009900024E096958795779567952A95D1F79A01E2
:1009A00050E040E00E94A10B215031093093C50076
:1009B0002093C40088E18093C1001092C20081E0BE
:1009C000E816F104A9F082E0E816F104B9F002306B
:1009D000110529F48091C20088608093C200C6305E
:1009E000D10581F02797D1F08091C20086600DC0BB
:1009F0008091C20080628093C200E9CF8091C200E2
:100A00008063F9CF8091C20082608093C200DF9141
:100A1000CF911F910F91FF90EF9008958091C200A8
:100A20008460F3CF9091C00095FFFCCF8093C60007
:100A30000895CF93DF93EC018991811103C0DF9179
:100A4000CF9108950E941205F7CF0F931F93CF9374
:100A5000DF9300D000D0CDB7DEB71F928F9380E038
:100A600091E09F938F938E010F5F1F4F1F930F9302
:100A70000E945610C8010E9419050F900F900F9008
:100A80000F900F900F900F900F900F900F90DF919D
:100A9000CF911F910F9108950F931F93CF93DF93E1
:100AA000CDB7DEB760970FB6F894DEBF0FBECDBFEF
:100AB0009F938F937F936F9383E091E09F938F93A6
:100AC0008E010F5F1F4F1F930F930E945610C80196
:100AD0000E9419050FB6F894DEBF0FBECDBF609619
:100AE0000FB6F894DEBF0FBECDBFDF91CF911F913F
:100AF0000F9108950F931F93CF93DF9300D000D0F1
:100B0000CDB7DEB79F938F9380E091E09F938F9353
:100B10008E010F5F1F4F1F930F930E945610C80145
:100B20000E9419050F900F900F900F900F900F904B
:100B30000F900F900F900F90DF91CF911F910F9119
:100B400008950F931F93CF93DF9300D000D0CDB7BC
:100B5000DEB79F938F9380E091E09F938F938E01F8
:100B60000F5F1F4F1F930F930E945610C8010E94E2
:100B700019050F900F900F900F900F900F900F90FE
:100B80000F900F900F90DF91CF911F910F910895CB
:100B900084B5836884BD85B5836085BDE0EBF0E0F6
:100BA000808183628083E1EBF0E0808184608083D8
:100BB000209A579A559A549A569A539A28985F9819
:100BC0005D985C98089587BD8093B400289A5F98DB
:100BD0005D9A5C98089587BD8093B40028985F9AC9
:100BE0005D985C9A089528985F985D985C98089540
:100BF000259A08952D9A08952D98089568177907D4
:100C00000CF4BC01CB010895861797070CF4BC01C6
:100C1000CB01089510928000EFE6F0E080818160C2
:100C20008083E1E8F0E08081816080838081897F3A
:100C3000808308958F929F92AF92BF92CF92DF925E
:100C4000EF92FF920F931F93CF93DF93EC01F894F1
:100C500004E810E0F801808160918500C0903A01BD
:100C6000D0903B01E0903C01F0903D01762F682F41
:100C700090E080E00E94860D20E034E244E75BE4EF
:100C80000E94DE0C4B015C012DEB37E346E85BE391
:100C9000C701B6010E946C0E9B01AC01C501B401F5
:100CA0000E94FB0B688379838A839B8310923A01AD
:100CB00010923B0110923C0110923D01F80111820B
:100CC00010827894DF91CF911F910F91FF90EF9058
:100CD000DF90CF90BF90AF909F908F9008951F921C
:100CE0000F920FB60F9211242F933F934F935F9360
:100CF0006F937F938F939F93AF93BF93EF93FF93E4
:100D000060913A0170913B0180913C0190913D01CD
:100D100020E030E040E85FE30E94FB0B60933A0183
:100D200070933B0180933C0190933D01FF91EF91C3
:100D3000BF91AF919F918F917F916F915F914F91F3
:100D40003F912F910F900FBE0F901F901895AFE01D
:100D5000B0E0EDEAF6E00C94C30B6C011B015A0104
:100D6000FC0117821682838181FF48C39E012F5F99
:100D70003F4F4901F6019381F10193FD859193FF66
:100D800081911F01882309F4E7C2853239F493FD6C
:100D9000859193FF81911F01853239F4B60190E06E
:100DA0000E94261035015301E5CFF12C512C00E0B3
:100DB000003238F48B3209F190F48032F9F083324A
:100DC00009F107FD34C020ED280F2A3020F506FF79
:100DD0001BC0FAE0FF9E200D1124F22E05C08D32BB
:100DE00079F0803371F70160F10193FD859193FFF4
:100DF00081911F018111DCCF1AC002600460F4CF21
:100E00000860F2CF0061F0CF3AE0539E200D11242C
:100E1000522E0062E9CF8E3221F406FD9DC200649D
:100E2000E3CF8C3611F40068DFCF8836E9F29BEB14
:100E3000980F933008F05FC00061805E06FD02C02D
:100E400046E0F42E102F1F73853609F05BC0106446
:100E500017FF61C08F2D9BE39F1508F48BE344249B
:100E60004394480E27E03501F4E06F0E711CF50144
:100E70006081718182819381042DA4010E94380FC9
:100E80005C01F981FC87F0FF03C00DE2F3FF07C0AE
:100E90000BE211FD04C0012F047012FD00E22C854D
:100EA0002C70E22E09F457C00111ABC2F3E0E12C23
:100EB000F515A0F483E0E52CE81A13FD08C0B6018F
:100EC00080E290E00E942610EA94E110F8CF00231F
:100ED00029F0B601802F90E00E9426103C8526E97B
:100EE000A22E20E0B22E33FD04C09AE9A92E90E094
:100EF000B92E107122C09BE9980F933008F033C1CE
:100F00000F7E9CCF863611F41068A2CFFF2009F423
:100F10009FCFFA949DCFE7E02F2DEF1518F427E02F
:100F200037E0F32E412C9FCF11118052B60190E093
:100F30000E9426108FEFA81AB80AF501849181113A
:100F4000F3CFEE2009F42FCFB60180E290E00E94AB
:100F50002610EA94F6CF17FF6FC04A0CFC85F4FF09
:100F600004C08A81813309F44A9414140CF086C0B9
:100F700028E0241510F488E0482E85E090E017FF63
:100F800006C0C501B7FE02C090E080E001960111E5
:100F90000196FF2031F02F2D30E02F5F3F4F820F61
:100FA000931F5816190619F014F0E52CE81A812F32
:100FB000897011F4E11067C0002329F0B601802F79
:100FC00090E00E94261013FD02C0E11063C017FFDD
:100FD0007CC08501B7FE02C010E000E0C5018419A5
:100FE00091092C016F2D70E0EE27FF27E61BF70B10
:100FF000FF87EE870F3F100729F4B6018EE290E0DD
:101000000E942610A016B1060CF44BC040165106E3
:101010000CF047C0F501E01BF10BE80DF91D8181D3
:10102000015011092E853F8502171307E4F1B6011F
:1010300090E00E942610DECF16FD9FCFEF2DF0E04E
:10104000EA15FB0534F03CEFA3163FEFB3060CF0B6
:1010500010683296E80DF91D01C0FA94FF2019F0CE
:1010600082918033D1F317FF88CF442443944F0CEF
:10107000FA141B0431F02CF0FA187FCF4424439467
:101080007CCFF12C7ACFB60180E290E00E9426104E
:10109000EA9490CFB60180E390E00E942610EA9493
:1010A00094CF80E3BDCFA016B10641F49A81963368
:1010B00050F4953319F43C8534FF05C0B60190E037
:1010C0000E9426103ECF81E3F9CF8A81813319F047
:1010D0009C859F7E9C87B60190E00E942610FF2091
:1010E000A9F0B6018EE290E00E942610F394F394EA
:1010F000E2E001E00E0FE80DF92DF11D8081B6014F
:1011000090E00E942610E02F0F11F3CF85E690E0CB
:1011100014FF02C085E490E0B6010E942610B7FCDF
:1011200006C0A114B104C1F4EC85E4FF15C0B1946C
:10113000A194B1088DE2B60190E00E94261080E3F0
:101140002AE0A216B10454F4B60190E00E942610E1
:10115000B601C501C096B4CF8BE2EDCF8F5FFAE048
:10116000AF1AB108EDCF8336C9F0833771F18335FB
:1011700009F05BC03501F2E06F0E711CF501A08033
:10118000B1806F2D70E006FD02C06FEF7FEFC501EB
:101190000E9410109D878C8700680DC0350132E0D9
:1011A000630E711CF5018081898321E030E03D8769
:1011B0002C8754010F7703FD06C02C853D85521600
:1011C000130609F0A8F4E52C2BC0350132E0630EBC
:1011D000711CF501A080B1806F2D70E006FD02C08A
:1011E0006FEF7FEFC5010E941B109D878C87E2CFB8
:1011F000B60180E290E00E9426105A94DECFF501FD
:1012000007FD859107FF81915F01B60190E00E9483
:101210002610E110EA948C859D8501979D878C8727
:10122000EC85FD85EF2B59F78CCE843619F0893685
:1012300009F074C0350107FF66C0F4E06F0E711C41
:10124000F5016081718182819381102F1F7697FF54
:1012500008C090958095709561957F4F8F4F9F4FF7
:1012600010682AE030E0A4010E947910A82EA81886
:10127000BA2C012F16FF0AC00E7FAF1438F414FFEA
:1012800004C012FD02C0012F0E7EBF2C04FF8EC0D1
:10129000FE01EA0DF11D8081803309F080C0097ED6
:1012A000F02FF870EF2E03FD90C000FF8AC0FA2CDB
:1012B000B51410F4F50CFB1804FF8DC0B60180E3E3
:1012C00090E00E94261002FF09C088E790E001FF2D
:1012D00002C088E590E0B6010E942610AF1408F421
:1012E00086C0AA940A2D10E00F5F1F4F080D191D2C
:1012F000F80182918F01B60190E00E9426108016BD
:101300009106B1F71ECEF2E06F0E711CF5016081FF
:101310007181072E000C880B990B97CF102F853702
:10132000A9F41F7E2AE030E0350117FF2FC0F4E05A
:101330006F0E711CF5016081718182819381A4011E
:101340000E947910A82EA8181F7792CF197F8F3688
:10135000D1F048F4883591F0F601868197812F9677
:10136000E2E10C94DF0B803739F08837A9F714FDE0
:10137000146020E130E0D8CF1061F9CF04FD166091
:1013800020E132E0D1CF28E030E0CECFF2E06F0EA6
:10139000711CF5016081718190E080E0D0CF02FD89
:1013A00002C0B3947DCFB394B3947ACF802F867864
:1013B00009F476CFF6CFB60180E290E00E942610C5
:1013C000B394B514C0F3E12C77CFE52CEB18B5142A
:1013D00008F472CFF8CF802F867809F47FCF8BE2A4
:1013E00001FF80E207FD8DE2B60190E075CFB60106
:1013F00080E390E00E942610FA9470CF8FEF9FEF69
:10140000AECF24E0E12C251508F063CD84E053CD68
:10141000CF93DF93CDB7DEB7CE54D1090FB6F89492
:10142000DEBF0FBECDBFF12CE12C02E010E028E0C2
:1014300030E040E855E260E074E284EF90E00E9422
:10144000C10478940E94C6032FEF83EC99E02150E9
:1014500080409040E1F700C0000080ED0E94CC0386
:10146000813009F05BC186E091E00E9419058FE8A8
:10147000C82E82ECD82E85EFE82E8CE3F82E06EAF3
:101480001BE924E43BE34FE652E163E87AE3CE0153
:1014900001960E94ED010E9403010E940A060E942B
:1014A000C805812C912C5401312C212C2A961FAE79
:1014B0002A972B961FAE2B97CE018B5B9F4F0E94D6
:1014C0001A06CE01CF960E94BA01CE01C9960E949B
:1014D000540123966EAD7FAD2397072E000C880B29
:1014E000990B0E94880D2DEC3CEC4CE151E40E94DC
:1014F0006C0E9B01AC010E94FB0B20E030E040E051
:1015000058E30E946C0E2B013C0125966EAD7FAD19
:101510002597072E000C880B990B0E94880D2DEC47
:101520003CEC4CE151E40E946C0E9B01AC010E942A
:10153000FB0B20E030E040E058E30E946C0E6B01B2
:101540007C01A3019201C301B2010E946C0E2B0128
:101550003C01A7019601C701B6010E946C0E9B01D8
:10156000AC01C301B2010E94FB0B0E94DF0E6B01B4
:101570007C0121966EAD7FAD2197072E000C880B64
:10158000990B0E94880D2DEC3CEC4CE151E40E943B
:101590006C0E9B01AC010E94FB0B20E030E040E0B0
:1015A00058E30E946C0EA70196010E947A0C2B0151
:1015B0003C012996CCACDDACEEACFFAC29976BAD11
:1015C0007CAD072E000C880B990B0E94880D20E043
:1015D00030E043E053E40E94DE0C25E33AEF4EE8AE
:1015E0005CE30E946C0E2F966CAF7DAF8EAF9FAF09
:1015F0002F9720E030E044E353E4C301B2010E949E
:101600006C0E90582BED3FE049E450E40E94DE0C54
:10161000AB01BC012F960CAD1DAD2EAD3FAD2F978C
:10162000CE0101960E942302FD84EE84DF84C888E7
:1016300020E030E04CE852E46F2D7E2D8D2D9C2D66
:101640000E946C0E9B01AC01C501B4010E94FB0B12
:101650004B015C01232D322D2A964FAD2A972B96F4
:101660005FAD2B976F2D7E2D8D2D9C2D0E94FA0B3B
:1016700029962CAD3DAD4EAD5FAD29970E94DE0C95
:101680002DEC3CEC4CE050E40E946C0E2B013C0134
:1016900020E030E040E752E46F2D7E2D8D2D9C2D13
:1016A0000E946C0EA50194010E94FB0B9B01AC01F2
:1016B000C301B2010E94FB0B0E94500D2B018B0154
:1016C00077FF04C000271127061B170B0F3F1105DA
:1016D00019F014F00FEF10E082E391E00E94190579
:1016E000C2010E94A1058FE291E00E94190520E04D
:1016F00030E040E450EC6F2D7E2D8D2D9C2D0E940E
:10170000D90C87FF0EC0C8010E94E30517012A9675
:10171000DFAE2A972B96CFAE2B97CECE8DE191E000
:10172000A4CE20E030E040E450E46F2D7E2D8D2DDE
:101730009C2D0E945F0E18164CF7C8010E94EB0505
:10174000E5CFA1E21A2EAA1BBB1BFD010DC0AA1FEB
:10175000BB1FEE1FFF1FA217B307E407F50720F01A
:10176000A21BB30BE40BF50B661F771F881F991F95
:101770001A9469F760957095809590959B01AC01DE
:10178000BD01CF0108952F923F924F925F926F92C9
:101790007F928F929F92AF92BF92CF92DF92EF9201
:1017A000FF920F931F93CF93DF93CDB7DEB7CA1B82
:1017B000DB0B0FB6F894DEBF0FBECDBF09942A88AD
:1017C000398848885F846E847D848C849B84AA8455
:1017D000B984C884DF80EE80FD800C811B81AA81E2
:1017E000B981CE0FD11D0FB6F894DEBF0FBECDBFAD
:1017F000ED0108955058BB27AA270E94120C0C94A3
:10180000250E0E94170E38F00E941E0E20F039F4AB
:101810009F3F19F426F40C94ED0D0EF4E095E7FBD0
:101820000C94E70DE92F0E94360E58F3BA176207A1
:1018300073078407950720F079F4A6F50C94580EE9
:101840000EF4E0950B2EBA2FA02D0B01B9019001DB
:101850000C01CA01A0011124FF27591B99F0593F1F
:1018600050F4503E68F11A16F040A22F232F342F67
:101870004427585FF3CF469537952795A795F040B5
:101880005395C9F77EF41F16BA0B620B730B840BCA
:10189000BAF09150A1F0FF0FBB1F661F771F881F82
:1018A000C2F70EC0BA0F621F731F841F48F48795DA
:1018B00077956795B795F7959E3F08F0B0CF9395CC
:1018C000880F08F09927EE0F9795879508950E9445
:1018D000170E60F080E891E009F49EEF0E941E0E62
:1018E00028F040E851E071F45EEF0CC00C94ED0D6F
:1018F0000C94580EE92FE0780E94360E40F3092E22
:10190000052AB1F3261737074807590738F00E2E76
:1019100007F8E02569F0E025E0640AC0EF6307F806
:10192000009407FADB01B9019D01DC01CA01AD0198
:10193000EF930E94F50C0E94250E0E94AA0C5F9165
:10194000552339F02BED3FE049E450FD49EC0C9470
:10195000FB0B0895DF93DD27B92FBF7740E85FE3E6
:101960001616170648075B0718F4D92F0E94640E55
:101970009F938F937F936F930E941F0FE8E6F0E091
:101980000E94F00D0E94250E2F913F914F915F9183
:101990000E947F0EDD2351F09058A2EA2AED3FE02D
:1019A00049EC5FE3D0785D270E94120CDF910C9424
:1019B000250E0E94C30D08F481E008950E94F20CE8
:1019C0000C94250E0E941E0E58F00E94170E40F037
:1019D00029F45F3F29F00C94E70D51110C94590E36
:1019E0000C94ED0D0E94360E68F39923B1F3552344
:1019F00091F3951B550BBB27AA2762177307840722
:101A000038F09F5F5F4F220F331F441FAA1FA9F3B7
:101A100035D00E2E3AF0E0E832D091505040E695A5
:101A2000001CCAF72BD0FE2F29D0660F771F881F06
:101A3000BB1F261737074807AB07B0E809F0BB0BF9
:101A4000802DBF01FF2793585F4F3AF09E3F51050D
:101A500078F00C94E70D0C94590E5F3FE4F3983E38
:101A6000D4F3869577956795B795F7959F5FC9F7F6
:101A7000880F911D9695879597F90895E1E0660F77
:101A8000771F881FBB1F621773078407BA0720F0F0
:101A9000621B730B840BBA0BEE1F88F7E095089559
:101AA0000E94570D6894B1110C94590E08950E942C
:101AB0003E0E88F09F5798F0B92F9927B751B0F094
:101AC000E1F0660F771F881F991F1AF0BA95C9F7C2
:101AD00014C0B13091F00E94580EB1E008950C94FA
:101AE000580E672F782F8827B85F39F0B93FCCF3AD
:101AF000869577956795B395D9F73EF4909580953F
:101B0000709561957F4F8F4F9F4F0895E89409C05E
:101B100097FB3EF490958095709561957F4F8F4F20
:101B20009F4F9923A9F0F92F96E9BB279395F69536
:101B3000879577956795B795F111F8CFFAF4BB0FB4
:101B400011F460FF1BC06F5F7F4F8F4F9F4F16C018
:101B5000882311F096E911C0772321F09EE8872FA2
:101B6000762F05C0662371F096E8862F70E060E05E
:101B70002AF09A95660F771F881FDAF7880F9695D7
:101B8000879597F90895990F0008550FAA0BE0E87B
:101B9000FEEF16161706E807F907C0F0121613062F
:101BA000E407F50798F0621B730B840B950B39F46F
:101BB0000A2661F0232B242B252B21F408950A26D5
:101BC00009F4A140A6958FEF811D811D089597F915
:101BD0009F6780E870E060E008959FEF80EC0895D3
:101BE000DF93CF931F930F93FF92EF92DF927B01CE
:101BF0008C01689406C0DA2EEF010E947F0EFE0170
:101C0000E894A5912591359145915591A6F3EF0161
:101C10000E94120CFE019701A801DA9469F7DF9087
:101C2000EF90FF900F911F91CF91DF9108950024C5
:101C30000A941616170618060906089500240A9431
:101C400012161306140605060895092E0394000CB7
:101C500011F4882352F0BB0F40F4BF2B11F460FF46
:101C600004C06F5F7F4F8F4F9F4F089557FD90586F
:101C7000440F551F59F05F3F71F04795880F97FB50
:101C8000991F61F09F3F79F087950895121613060A
:101C90001406551FF2CF4695F1DF08C01616170639
:101CA0001806991FF1CF869571056105089408956E
:101CB000E894BB2766277727CB0197F908950E9400
:101CC000C30D08F48FEF08959B01AC0160E070E054
:101CD00080E89FE30C94DE0C0E947F0E0C94250E8E
:101CE0000E94170E38F00E941E0E20F0952311F06E
:101CF0000C94E70D0C94ED0D11240C94590E0E94D8
:101D0000360E70F3959FC1F3950F50E0551F629FFB
:101D1000F001729FBB27F00DB11D639FAA27F00D44
:101D2000B11DAA1F649F6627B00DA11D661F829F6B
:101D30002227B00DA11D621F739FB00DA11D621F50
:101D4000839FA00D611D221F749F3327A00D611D6D
:101D5000231F849F600D211D822F762F6A2F11244F
:101D60009F5750409AF0F1F088234AF0EE0FFF1F82
:101D7000BB1F661F771F881F91505040A9F79E3FD9
:101D8000510580F00C94E70D0C94590E5F3FE4F37D
:101D9000983ED4F3869577956795B795F795E7952F
:101DA0009F5FC1F7FE2B880F911D9695879597F938
:101DB000089519F416F40C94ED0D0C94230F0E9461
:101DC0003E0EB8F39923C9F3B6F39F57550B87FF1F
:101DD0000E94310F0024A0E640EA900180585695F9
:101DE000979528F4805C660F771F881F20F02617D0
:101DF0003707480730F4621B730B840B2029312905
:101E00004A2BA69517940794202531254A2758F781
:101E1000660F771F881F20F026173707480730F412
:101E2000620B730B840B200D311D411DA09581F7B2
:101E3000B901842F9158880F9695879508959B0135
:101E4000AC010C946C0E9F3F31F0915020F48795BB
:101E500077956795B795880F911D9695879597F912
:101E6000089591505040660F771F881FD2F708954C
:101E7000283008F027E03327DA01990F311D87FD5C
:101E8000916000966105710539F432602E5F3D93D3
:101E900030E32A95E1F708959F3F30F080387105CF
:101EA000610509F03C5F3C5F3D93913008F080682C
:101EB000911DDF93CF931F930F93FF92EF92192FF2
:101EC000987F9695E92F96959695E90FFF27E8500C
:101ED000FF4F99273327EE24FF24A701E701059040
:101EE0000894079428F4360FE71EF81E491F511D69
:101EF000660F771F881F991F0694A1F70590079416
:101F000028F4E70EF81E491F561FC11D770F881FC2
:101F1000991F661F0694A1F70590079428F4F80E00
:101F2000491F561FC71FD11D880F991F661F771F96
:101F30000694A1F70590079420F4490F561FC71F78
:101F4000D81F990F661F771F881F0694A9F78491E1
:101F50001095177041F0D695C79557954795F7940A
:101F6000E7941A95C1F7EEE9F0E0689415901591A1
:101F700035916591959105907FE27395E118F10A8D
:101F8000430B560BC90BD009C0F7E10CF11E431FE0
:101F9000561FC91FD01D7EF4703311F48A95E6CF09
:101FA000E894015030F0080F0AF40027021708F4F3
:101FB000202F2395022F7A3328F079E37D932A95F9
:101FC000E9F710C07D932A9589F606949795679551
:101FD000379517951794E118F10A430B560BC90B67
:101FE000D00998F023957E9173957A3308F070E3C9
:101FF0007C932013B8F77E9170617D9330F08395C8
:1020000071E37D9370E32A95E1F71124EF90FF903F
:102010000F911F91CF91DF91992787FD909508959A
:10202000FC010590615070400110D8F780959095A3
:102030008E0F9F1F0895FC016150704001900110A8
:10204000D8F7809590958E0F9F1F08950F931F933B
:10205000CF93DF93182F092FEB018B8181FD09C0EE
:102060001FEF0FEF812F902FDF91CF911F910F91D5
:10207000089582FF14C02E813F818C819D81281795
:1020800039073CF4E881F981CF010196998388836F
:1020900010838E819F8101969F838E83E3CFE88595
:1020A000F985812F0995892BA1F3DACFAEE0B0E055
:1020B000ECE5F0E10C94D10B0D891E8986E08C8350
:1020C0001A8309838FEF9FE79E838D83AE01475E5E
:1020D0005F4F6F89788DCE0101960E94A7062F81F0
:1020E0003885020F131FF80110822E96E4E00C943D
:1020F000ED0BFA01AA27283051F1203181F1E89443
:102100006F936E7F6E5F7F4F8F4F9F4FAF4FB1E0EA
:102110003ED0B4E03CD0670F781F891F9A1FA11DE5
:10212000680F791F8A1F911DA11D6A0F711D811DE6
:10213000911DA11D20D009F468943F912AE0269FAB
:1021400011243019305D3193DEF6CF010895462F0A
:102150004770405D4193B3E00FD0C9F7F6CF462FEB
:102160004F70405D4A3318F0495D31FD4052419354
:1021700002D0A9F7EACFB4E0A69597958795779511
:102180006795BA95C9F700976105710508959B0198
:10219000AC010A2E06945795479537952795BA9521
:1021A000C9F7620F731F841F951FA01D0895F8942F
:0221B000FFCF5F
:1021B2002575002566004932432063616E6E6F7497
:1021C20020696E697469616C697A652100493243DC
:1021D20020696E697469616C697A6564203A290DB7
:0A21E2000A0073706565643A20007E
:00000001FF
